{
  "contractName": "property",
  "abi": [
    {
      "inputs": [],
      "stateMutability": "nonpayable",
      "type": "constructor"
    },
    {
      "inputs": [
        {
          "internalType": "uint256",
          "name": "propertyId",
          "type": "uint256"
        },
        {
          "internalType": "uint256",
          "name": "ownerId",
          "type": "uint256"
        },
        {
          "internalType": "string",
          "name": "propertyData",
          "type": "string"
        },
        {
          "internalType": "string",
          "name": "propertysize",
          "type": "string"
        }
      ],
      "name": "registerProperty",
      "outputs": [],
      "stateMutability": "nonpayable",
      "type": "function"
    },
    {
      "inputs": [],
      "name": "viewProperties",
      "outputs": [
        {
          "internalType": "uint256[]",
          "name": "",
          "type": "uint256[]"
        },
        {
          "internalType": "uint256[][]",
          "name": "",
          "type": "uint256[][]"
        },
        {
          "internalType": "string[]",
          "name": "",
          "type": "string[]"
        },
        {
          "internalType": "string[]",
          "name": "",
          "type": "string[]"
        }
      ],
      "stateMutability": "view",
      "type": "function",
      "constant": true
    },
    {
      "inputs": [
        {
          "internalType": "uint256",
          "name": "propertyID",
          "type": "uint256"
        },
        {
          "internalType": "uint256",
          "name": "newOwner",
          "type": "uint256"
        }
      ],
      "name": "buyProperty",
      "outputs": [],
      "stateMutability": "nonpayable",
      "type": "function"
    }
  ],
  "bytecode": "0x608060405234801561001057600080fd5b50336000806101000a81548173ffffffffffffffffffffffffffffffffffffffff021916908373ffffffffffffffffffffffffffffffffffffffff160217905550610d57806100606000396000f3fe608060405234801561001057600080fd5b50600436106100415760003560e01c8063306b67e7146100465780636bc8df3914610067578063a772c92714610083575b600080fd5b61004e61009f565b60405161005e9493929190610966565b60405180910390f35b610081600480360381019061007c9190610b3c565b61034c565b005b61009d60048036038101906100989190610bdb565b61048f565b005b6060806060806001600260036004838054806020026020016040519081016040528092919081815260200182805480156100f857602002820191906000526020600020905b8154815260200190600101908083116100e4575b5050505050935082805480602002602001604051908101604052809291908181526020016000905b828210156101925783829060005260206000200180548060200260200160405190810160405280929190818152602001828054801561017e57602002820191906000526020600020905b81548152602001906001019080831161016a575b505050505081526020019060010190610120565b50505050925081805480602002602001604051908101604052809291908181526020016000905b828210156102655783829060005260206000200180546101d890610c4a565b80601f016020809104026020016040519081016040528092919081815260200182805461020490610c4a565b80156102515780601f1061022657610100808354040283529160200191610251565b820191906000526020600020905b81548152906001019060200180831161023457829003601f168201915b5050505050815260200190600101906101b9565b50505050915080805480602002602001604051908101604052809291908181526020016000905b828210156103385783829060005260206000200180546102ab90610c4a565b80601f01602080910402602001604051908101604052809291908181526020018280546102d790610c4a565b80156103245780601f106102f957610100808354040283529160200191610324565b820191906000526020600020905b81548152906001019060200180831161030757829003601f168201915b50505050508152602001906001019061028c565b505050509050935093509350935090919293565b6005600085815260200190815260200160002060009054906101000a900460ff161561037757600080fd5b60016005600086815260200190815260200160002060006101000a81548160ff0219169083151502179055506001849080600181540180825580915050600190039060005260206000200160009091909190915055600260405180602001604052808581525090806001815401808255809150506001900390600052602060002001600090919091909150906001610410929190610522565b5060038290806001815401808255809150506001900390600052602060002001600090919091909150908051906020019061044c92919061056f565b5060048190806001815401808255809150506001900390600052602060002001600090919091909150908051906020019061048892919061056f565b5050505050565b60005b60018054905081101561051d5782600182815481106104b4576104b3610c7b565b5b90600052602060002001540361050a57600281815481106104d8576104d7610c7b565b5b906000526020600020018290806001815401808255809150506001900390600052602060002001600090919091909150555b808061051590610cd9565b915050610492565b505050565b82805482825590600052602060002090810192821561055e579160200282015b8281111561055d578251825591602001919060010190610542565b5b50905061056b91906105f5565b5090565b82805461057b90610c4a565b90600052602060002090601f01602090048101928261059d57600085556105e4565b82601f106105b657805160ff19168380011785556105e4565b828001600101855582156105e4579182015b828111156105e35782518255916020019190600101906105c8565b5b5090506105f191906105f5565b5090565b5b8082111561060e5760008160009055506001016105f6565b5090565b600081519050919050565b600082825260208201905092915050565b6000819050602082019050919050565b6000819050919050565b6106518161063e565b82525050565b60006106638383610648565b60208301905092915050565b6000602082019050919050565b600061068782610612565b610691818561061d565b935061069c8361062e565b8060005b838110156106cd5781516106b48882610657565b97506106bf8361066f565b9250506001810190506106a0565b5085935050505092915050565b600081519050919050565b600082825260208201905092915050565b6000819050602082019050919050565b600082825260208201905092915050565b600061072282610612565b61072c8185610706565b93506107378361062e565b8060005b8381101561076857815161074f8882610657565b975061075a8361066f565b92505060018101905061073b565b5085935050505092915050565b60006107818383610717565b905092915050565b6000602082019050919050565b60006107a1826106da565b6107ab81856106e5565b9350836020820285016107bd856106f6565b8060005b858110156107f957848403895281516107da8582610775565b94506107e583610789565b925060208a019950506001810190506107c1565b50829750879550505050505092915050565b600081519050919050565b600082825260208201905092915050565b6000819050602082019050919050565b600081519050919050565b600082825260208201905092915050565b60005b83811015610871578082015181840152602081019050610856565b83811115610880576000848401525b50505050565b6000601f19601f8301169050919050565b60006108a282610837565b6108ac8185610842565b93506108bc818560208601610853565b6108c581610886565b840191505092915050565b60006108dc8383610897565b905092915050565b6000602082019050919050565b60006108fc8261080b565b6109068185610816565b93508360208202850161091885610827565b8060005b85811015610954578484038952815161093585826108d0565b9450610940836108e4565b925060208a0199505060018101905061091c565b50829750879550505050505092915050565b60006080820190508181036000830152610980818761067c565b905081810360208301526109948186610796565b905081810360408301526109a881856108f1565b905081810360608301526109bc81846108f1565b905095945050505050565b6000604051905090565b600080fd5b600080fd5b6109e48161063e565b81146109ef57600080fd5b50565b600081359050610a01816109db565b92915050565b600080fd5b600080fd5b7f4e487b7100000000000000000000000000000000000000000000000000000000600052604160045260246000fd5b610a4982610886565b810181811067ffffffffffffffff82111715610a6857610a67610a11565b5b80604052505050565b6000610a7b6109c7565b9050610a878282610a40565b919050565b600067ffffffffffffffff821115610aa757610aa6610a11565b5b610ab082610886565b9050602081019050919050565b82818337600083830152505050565b6000610adf610ada84610a8c565b610a71565b905082815260208101848484011115610afb57610afa610a0c565b5b610b06848285610abd565b509392505050565b600082601f830112610b2357610b22610a07565b5b8135610b33848260208601610acc565b91505092915050565b60008060008060808587031215610b5657610b556109d1565b5b6000610b64878288016109f2565b9450506020610b75878288016109f2565b935050604085013567ffffffffffffffff811115610b9657610b956109d6565b5b610ba287828801610b0e565b925050606085013567ffffffffffffffff811115610bc357610bc26109d6565b5b610bcf87828801610b0e565b91505092959194509250565b60008060408385031215610bf257610bf16109d1565b5b6000610c00858286016109f2565b9250506020610c11858286016109f2565b9150509250929050565b7f4e487b7100000000000000000000000000000000000000000000000000000000600052602260045260246000fd5b60006002820490506001821680610c6257607f821691505b602082108103610c7557610c74610c1b565b5b50919050565b7f4e487b7100000000000000000000000000000000000000000000000000000000600052603260045260246000fd5b7f4e487b7100000000000000000000000000000000000000000000000000000000600052601160045260246000fd5b6000610ce48261063e565b91507fffffffffffffffffffffffffffffffffffffffffffffffffffffffffffffffff8203610d1657610d15610caa565b5b60018201905091905056fea26469706673582212207ed34e9182df3b654ab91cdaa5719c1209454ae52714d1ad9fc239e43932de3c64736f6c634300080d0033",
  "immutableReferences": {},
  "source": "// SPDX-License-Identifier: MIT\r\npragma solidity >=0.4.22 <0.9.0;\r\n\r\ncontract property {\r\n  \r\n  address admin;\r\n  uint[] _propertyId;\r\n  uint[][] _ownerId;\r\n  string[] _propertyData;\r\n  string[] _size;\r\n   \r\n  \r\n  mapping(uint => bool) registeredProperties;\r\n\r\n  constructor() {\r\n      admin=msg.sender;\r\n  }\r\n\r\n  modifier onlyAdmin {\r\n    require(admin==msg.sender);\r\n    _;\r\n  }\r\n\r\n  function registerProperty(uint propertyId,uint ownerId,string memory propertyData,string memory propertysize) public {\r\n\r\n    require(!registeredProperties[propertyId]);\r\n\r\n    registeredProperties[propertyId]=true;\r\n    _propertyId.push(propertyId);\r\n    _ownerId.push([ownerId]);\r\n    _propertyData.push(propertyData);\r\n    _size.push(propertysize);\r\n    \r\n  }\r\n\r\n  function viewProperties() public view returns(uint[] memory,uint[][] memory,string[] memory,string[] memory) {\r\n    return (_propertyId,_ownerId,_propertyData,_size);\r\n  }\r\n\r\n  function buyProperty(uint propertyID, uint newOwner) public{\r\n      uint i;\r\n      for(i=0;i<_propertyId.length;i++) {\r\n        if(_propertyId[i]==propertyID) {\r\n            \r\n          _ownerId[i].push(newOwner);\r\n        }\r\n      }\r\n\r\n  }\r\n\r\n  \r\n}\r\n",
  "sourcePath": "E:\\Users\\komal\\Desktop\\github\\landregistration\\landregistration\\contracts\\property.sol",
  "compiler": {
    "name": "solc",
    "version": "0.8.13+commit.abaa5c0e.Emscripten.clang"
  },
  "schemaVersion": "3.4.11",
  "updatedAt": "2022-11-25T03:45:18.445Z",
  "networkType": "ethereum",
  "devdoc": {
    "kind": "dev",
    "methods": {},
    "version": 1
  },
  "userdoc": {
    "kind": "user",
    "methods": {},
    "version": 1
  }
}