{
  "contractName": "property",
  "abi": [
    {
      "inputs": [],
      "stateMutability": "nonpayable",
      "type": "constructor"
    },
    {
      "inputs": [
        {
          "internalType": "uint256",
          "name": "propertyId",
          "type": "uint256"
        },
        {
          "internalType": "uint256",
          "name": "ownerId",
          "type": "uint256"
        },
        {
          "internalType": "string",
          "name": "propertyData",
          "type": "string"
        }
      ],
      "name": "registerProperty",
      "outputs": [],
      "stateMutability": "nonpayable",
      "type": "function"
    },
    {
      "inputs": [],
      "name": "viewProperties",
      "outputs": [
        {
          "internalType": "uint256[]",
          "name": "",
          "type": "uint256[]"
        },
        {
          "internalType": "uint256[][]",
          "name": "",
          "type": "uint256[][]"
        },
        {
          "internalType": "string[]",
          "name": "",
          "type": "string[]"
        }
      ],
      "stateMutability": "view",
      "type": "function",
      "constant": true
    },
    {
      "inputs": [
        {
          "internalType": "uint256",
          "name": "propertyID",
          "type": "uint256"
        },
        {
          "internalType": "uint256",
          "name": "newOwner",
          "type": "uint256"
        }
      ],
      "name": "buyProperty",
      "outputs": [],
      "stateMutability": "nonpayable",
      "type": "function"
    }
  ],
  "bytecode": "0x608060405234801561001057600080fd5b50336000806101000a81548173ffffffffffffffffffffffffffffffffffffffff021916908373ffffffffffffffffffffffffffffffffffffffff160217905550610bfb806100606000396000f3fe608060405234801561001057600080fd5b50600436106100415760003560e01c8063306b67e714610046578063a772c92714610066578063ccfc7f7214610082575b600080fd5b61004e61009e565b60405161005d9392919061084f565b60405180910390f35b610080600480360381019061007b91906108db565b610272565b005b61009c60048036038101906100979190610a50565b610305565b005b6060806060600160026003828054806020026020016040519081016040528092919081815260200182805480156100f457602002820191906000526020600020905b8154815260200190600101908083116100e0575b5050505050925081805480602002602001604051908101604052809291908181526020016000905b8282101561018e5783829060005260206000200180548060200260200160405190810160405280929190818152602001828054801561017a57602002820191906000526020600020905b815481526020019060010190808311610166575b50505050508152602001906001019061011c565b50505050915080805480602002602001604051908101604052809291908181526020016000905b828210156102615783829060005260206000200180546101d490610aee565b80601f016020809104026020016040519081016040528092919081815260200182805461020090610aee565b801561024d5780601f106102225761010080835404028352916020019161024d565b820191906000526020600020905b81548152906001019060200180831161023057829003601f168201915b5050505050815260200190600101906101b5565b505050509050925092509250909192565b60005b60018054905081101561030057826001828154811061029757610296610b1f565b5b9060005260206000200154036102ed57600281815481106102bb576102ba610b1f565b5b906000526020600020018290806001815401808255809150506001900390600052602060002001600090919091909150555b80806102f890610b7d565b915050610275565b505050565b6004600084815260200190815260200160002060009054906101000a900460ff161561033057600080fd5b60016004600085815260200190815260200160002060006101000a81548160ff02191690831515021790555060018390806001815401808255809150506001900390600052602060002001600090919091909150556002604051806020016040528084815250908060018154018082558091505060019003906000526020600020016000909190919091509060016103c992919061040b565b50600381908060018154018082558091505060019003906000526020600020016000909190919091509080519060200190610405929190610458565b50505050565b828054828255906000526020600020908101928215610447579160200282015b8281111561044657825182559160200191906001019061042b565b5b50905061045491906104de565b5090565b82805461046490610aee565b90600052602060002090601f01602090048101928261048657600085556104cd565b82601f1061049f57805160ff19168380011785556104cd565b828001600101855582156104cd579182015b828111156104cc5782518255916020019190600101906104b1565b5b5090506104da91906104de565b5090565b5b808211156104f75760008160009055506001016104df565b5090565b600081519050919050565b600082825260208201905092915050565b6000819050602082019050919050565b6000819050919050565b61053a81610527565b82525050565b600061054c8383610531565b60208301905092915050565b6000602082019050919050565b6000610570826104fb565b61057a8185610506565b935061058583610517565b8060005b838110156105b657815161059d8882610540565b97506105a883610558565b925050600181019050610589565b5085935050505092915050565b600081519050919050565b600082825260208201905092915050565b6000819050602082019050919050565b600082825260208201905092915050565b600061060b826104fb565b61061581856105ef565b935061062083610517565b8060005b838110156106515781516106388882610540565b975061064383610558565b925050600181019050610624565b5085935050505092915050565b600061066a8383610600565b905092915050565b6000602082019050919050565b600061068a826105c3565b61069481856105ce565b9350836020820285016106a6856105df565b8060005b858110156106e257848403895281516106c3858261065e565b94506106ce83610672565b925060208a019950506001810190506106aa565b50829750879550505050505092915050565b600081519050919050565b600082825260208201905092915050565b6000819050602082019050919050565b600081519050919050565b600082825260208201905092915050565b60005b8381101561075a57808201518184015260208101905061073f565b83811115610769576000848401525b50505050565b6000601f19601f8301169050919050565b600061078b82610720565b610795818561072b565b93506107a581856020860161073c565b6107ae8161076f565b840191505092915050565b60006107c58383610780565b905092915050565b6000602082019050919050565b60006107e5826106f4565b6107ef81856106ff565b93508360208202850161080185610710565b8060005b8581101561083d578484038952815161081e85826107b9565b9450610829836107cd565b925060208a01995050600181019050610805565b50829750879550505050505092915050565b600060608201905081810360008301526108698186610565565b9050818103602083015261087d818561067f565b9050818103604083015261089181846107da565b9050949350505050565b6000604051905090565b600080fd5b600080fd5b6108b881610527565b81146108c357600080fd5b50565b6000813590506108d5816108af565b92915050565b600080604083850312156108f2576108f16108a5565b5b6000610900858286016108c6565b9250506020610911858286016108c6565b9150509250929050565b600080fd5b600080fd5b7f4e487b7100000000000000000000000000000000000000000000000000000000600052604160045260246000fd5b61095d8261076f565b810181811067ffffffffffffffff8211171561097c5761097b610925565b5b80604052505050565b600061098f61089b565b905061099b8282610954565b919050565b600067ffffffffffffffff8211156109bb576109ba610925565b5b6109c48261076f565b9050602081019050919050565b82818337600083830152505050565b60006109f36109ee846109a0565b610985565b905082815260208101848484011115610a0f57610a0e610920565b5b610a1a8482856109d1565b509392505050565b600082601f830112610a3757610a3661091b565b5b8135610a478482602086016109e0565b91505092915050565b600080600060608486031215610a6957610a686108a5565b5b6000610a77868287016108c6565b9350506020610a88868287016108c6565b925050604084013567ffffffffffffffff811115610aa957610aa86108aa565b5b610ab586828701610a22565b9150509250925092565b7f4e487b7100000000000000000000000000000000000000000000000000000000600052602260045260246000fd5b60006002820490506001821680610b0657607f821691505b602082108103610b1957610b18610abf565b5b50919050565b7f4e487b7100000000000000000000000000000000000000000000000000000000600052603260045260246000fd5b7f4e487b7100000000000000000000000000000000000000000000000000000000600052601160045260246000fd5b6000610b8882610527565b91507fffffffffffffffffffffffffffffffffffffffffffffffffffffffffffffffff8203610bba57610bb9610b4e565b5b60018201905091905056fea264697066735822122063657cd46777056ff834e4b2d2d0fe8534d70accf995050f15a4e4aa0351a53164736f6c634300080d0033",
  "immutableReferences": {},
  "source": "// SPDX-License-Identifier: MIT\r\npragma solidity >=0.4.22 <0.9.0;\r\n\r\ncontract property {\r\n  \r\n  address admin;\r\n  uint[] _propertyId;\r\n  uint[][] _ownerId;\r\n  string[] _propertyData;\r\n\r\n  mapping(uint => bool) registeredProperties;\r\n\r\n  constructor() {\r\n      admin=msg.sender;\r\n  }\r\n\r\n  modifier onlyAdmin {\r\n    require(admin==msg.sender);\r\n    _;\r\n  }\r\n\r\n  function registerProperty(uint propertyId,uint ownerId,string memory propertyData) public {\r\n\r\n    require(!registeredProperties[propertyId]);\r\n\r\n    registeredProperties[propertyId]=true;\r\n    _propertyId.push(propertyId);\r\n    _ownerId.push([ownerId]);\r\n    _propertyData.push(propertyData);\r\n    \r\n  }\r\n\r\n  function viewProperties() public view returns(uint[] memory,uint[][] memory,string[] memory) {\r\n    return (_propertyId,_ownerId,_propertyData);\r\n  }\r\n\r\n  function buyProperty(uint propertyID, uint newOwner) public {\r\n\r\n      uint i;\r\n      for(i=0;i<_propertyId.length;i++) {\r\n        if(_propertyId[i]==propertyID) {\r\n          _ownerId[i].push(newOwner);\r\n        }\r\n      }\r\n  }\r\n}\r\n",
  "sourcePath": "C:\\Users\\komal\\Desktop\\landregistration\\contracts\\property.sol",
  "compiler": {
    "name": "solc",
    "version": "0.8.13+commit.abaa5c0e.Emscripten.clang"
  },
  "schemaVersion": "3.4.10",
  "updatedAt": "2022-11-19T04:55:22.376Z",
  "networkType": "ethereum",
  "devdoc": {
    "kind": "dev",
    "methods": {},
    "version": 1
  },
  "userdoc": {
    "kind": "user",
    "methods": {},
    "version": 1
  }
}