{
  "contractName": "register",
  "abi": [
    {
      "inputs": [],
      "stateMutability": "nonpayable",
      "type": "constructor"
    },
    {
      "inputs": [
        {
          "internalType": "uint256",
          "name": "id",
          "type": "uint256"
        },
        {
          "internalType": "string",
          "name": "email",
          "type": "string"
        },
        {
          "internalType": "string",
          "name": "name",
          "type": "string"
        },
        {
          "internalType": "uint256",
          "name": "password",
          "type": "uint256"
        }
      ],
      "name": "registerUser",
      "outputs": [],
      "stateMutability": "nonpayable",
      "type": "function"
    },
    {
      "inputs": [
        {
          "internalType": "uint256",
          "name": "id",
          "type": "uint256"
        },
        {
          "internalType": "uint256",
          "name": "password",
          "type": "uint256"
        }
      ],
      "name": "loginUser",
      "outputs": [
        {
          "internalType": "bool",
          "name": "",
          "type": "bool"
        }
      ],
      "stateMutability": "view",
      "type": "function",
      "constant": true
    },
    {
      "inputs": [],
      "name": "viewUsers",
      "outputs": [
        {
          "internalType": "uint256[]",
          "name": "",
          "type": "uint256[]"
        },
        {
          "internalType": "string[]",
          "name": "",
          "type": "string[]"
        },
        {
          "internalType": "string[]",
          "name": "",
          "type": "string[]"
        }
      ],
      "stateMutability": "view",
      "type": "function",
      "constant": true
    }
  ],
  "bytecode": "0x608060405234801561001057600080fd5b5033600460006101000a81548173ffffffffffffffffffffffffffffffffffffffff021916908373ffffffffffffffffffffffffffffffffffffffff160217905550610b7a806100616000396000f3fe608060405234801561001057600080fd5b50600436106100415760003560e01c80630c93095d1461004657806314ebdb7914610076578063e7586d2614610096575b600080fd5b610060600480360381019061005b919061058f565b6100b2565b60405161006d91906105ea565b60405180910390f35b61007e61013f565b60405161008d9392919061081e565b60405180910390f35b6100b060048036038101906100ab919061099f565b61034d565b005b600080600090505b60008054905081101561013357600081815481106100db576100da610a3e565b5b90600052602060002001548414801561011157506003818154811061010357610102610a3e565b5b906000526020600020015483145b15610120576001915050610139565b808061012b90610a9c565b9150506100ba565b60009150505b92915050565b60608060606000600160028280548060200260200160405190810160405280929190818152602001828054801561019557602002820191906000526020600020905b815481526020019060010190808311610181575b5050505050925081805480602002602001604051908101604052809291908181526020016000905b828210156102695783829060005260206000200180546101dc90610b13565b80601f016020809104026020016040519081016040528092919081815260200182805461020890610b13565b80156102555780601f1061022a57610100808354040283529160200191610255565b820191906000526020600020905b81548152906001019060200180831161023857829003601f168201915b5050505050815260200190600101906101bd565b50505050915080805480602002602001604051908101604052809291908181526020016000905b8282101561033c5783829060005260206000200180546102af90610b13565b80601f01602080910402602001604051908101604052809291908181526020018280546102db90610b13565b80156103285780601f106102fd57610100808354040283529160200191610328565b820191906000526020600020905b81548152906001019060200180831161030b57829003601f168201915b505050505081526020019060010190610290565b505050509050925092509250909192565b3373ffffffffffffffffffffffffffffffffffffffff16600460009054906101000a900473ffffffffffffffffffffffffffffffffffffffff1673ffffffffffffffffffffffffffffffffffffffff16146103a757600080fd5b6005600085815260200190815260200160002060009054906101000a900460ff16156103d257600080fd5b60008490806001815401808255809150506001900390600052602060002001600090919091909150556001829080600181540180825580915050600190039060005260206000200160009091909190915090805190602001906104369291906104a2565b50600381908060018154018082558091505060019003906000526020600020016000909190919091505560028390806001815401808255809150506001900390600052602060002001600090919091909150908051906020019061049b9291906104a2565b5050505050565b8280546104ae90610b13565b90600052602060002090601f0160209004810192826104d05760008555610517565b82601f106104e957805160ff1916838001178555610517565b82800160010185558215610517579182015b828111156105165782518255916020019190600101906104fb565b5b5090506105249190610528565b5090565b5b80821115610541576000816000905550600101610529565b5090565b6000604051905090565b600080fd5b600080fd5b6000819050919050565b61056c81610559565b811461057757600080fd5b50565b60008135905061058981610563565b92915050565b600080604083850312156105a6576105a561054f565b5b60006105b48582860161057a565b92505060206105c58582860161057a565b9150509250929050565b60008115159050919050565b6105e4816105cf565b82525050565b60006020820190506105ff60008301846105db565b92915050565b600081519050919050565b600082825260208201905092915050565b6000819050602082019050919050565b61063a81610559565b82525050565b600061064c8383610631565b60208301905092915050565b6000602082019050919050565b600061067082610605565b61067a8185610610565b935061068583610621565b8060005b838110156106b657815161069d8882610640565b97506106a883610658565b925050600181019050610689565b5085935050505092915050565b600081519050919050565b600082825260208201905092915050565b6000819050602082019050919050565b600081519050919050565b600082825260208201905092915050565b60005b8381101561072957808201518184015260208101905061070e565b83811115610738576000848401525b50505050565b6000601f19601f8301169050919050565b600061075a826106ef565b61076481856106fa565b935061077481856020860161070b565b61077d8161073e565b840191505092915050565b6000610794838361074f565b905092915050565b6000602082019050919050565b60006107b4826106c3565b6107be81856106ce565b9350836020820285016107d0856106df565b8060005b8581101561080c57848403895281516107ed8582610788565b94506107f88361079c565b925060208a019950506001810190506107d4565b50829750879550505050505092915050565b600060608201905081810360008301526108388186610665565b9050818103602083015261084c81856107a9565b9050818103604083015261086081846107a9565b9050949350505050565b600080fd5b600080fd5b7f4e487b7100000000000000000000000000000000000000000000000000000000600052604160045260246000fd5b6108ac8261073e565b810181811067ffffffffffffffff821117156108cb576108ca610874565b5b80604052505050565b60006108de610545565b90506108ea82826108a3565b919050565b600067ffffffffffffffff82111561090a57610909610874565b5b6109138261073e565b9050602081019050919050565b82818337600083830152505050565b600061094261093d846108ef565b6108d4565b90508281526020810184848401111561095e5761095d61086f565b5b610969848285610920565b509392505050565b600082601f8301126109865761098561086a565b5b813561099684826020860161092f565b91505092915050565b600080600080608085870312156109b9576109b861054f565b5b60006109c78782880161057a565b945050602085013567ffffffffffffffff8111156109e8576109e7610554565b5b6109f487828801610971565b935050604085013567ffffffffffffffff811115610a1557610a14610554565b5b610a2187828801610971565b9250506060610a328782880161057a565b91505092959194509250565b7f4e487b7100000000000000000000000000000000000000000000000000000000600052603260045260246000fd5b7f4e487b7100000000000000000000000000000000000000000000000000000000600052601160045260246000fd5b6000610aa782610559565b91507fffffffffffffffffffffffffffffffffffffffffffffffffffffffffffffffff8203610ad957610ad8610a6d565b5b600182019050919050565b7f4e487b7100000000000000000000000000000000000000000000000000000000600052602260045260246000fd5b60006002820490506001821680610b2b57607f821691505b602082108103610b3e57610b3d610ae4565b5b5091905056fea26469706673582212202016c938fcb1f66eae530157f6fae8f32aeae72ec543d89f8537c15b00f1f4f664736f6c634300080d0033",
  "immutableReferences": {},
  "source": "// SPDX-License-Identifier: MIT\r\npragma solidity >=0.4.22 <0.9.0;\r\n\r\ncontract register {\r\n  uint[] _ids;\r\n  string[] _names;\r\n  string[] _emails;\r\n  uint[] _passwords;\r\n  address admin;\r\n  mapping(uint => bool ) users;\r\n\r\n  constructor()  {\r\n    admin=msg.sender;\r\n  }\r\n\r\n  modifier onlyAdmin {\r\n    require(admin==msg.sender);\r\n    _;\r\n  }\r\n\r\n  function registerUser(uint id,string memory email,string memory name,uint password) onlyAdmin public {\r\n\r\n    require(!users[id]);\r\n\r\n    _ids.push(id);\r\n    _names.push(name);\r\n    _passwords.push(password);\r\n    _emails.push(email);\r\n\r\n  }\r\n\r\n  function loginUser(uint id,uint password)  public view returns(bool){\r\n\r\n    uint i;\r\n    for(i=0;i<_ids.length;i++) {\r\n      if(id==_ids[i] && password==_passwords[i]) {\r\n        return true;\r\n      }\r\n    }\r\n    return false;\r\n  }\r\n\r\n  function viewUsers() public view returns (uint[] memory,string[] memory,string[] memory) {\r\n    return (_ids,_names,_emails);\r\n  }\r\n\r\n}\r\n",
  "sourcePath": "C:\\Users\\Madhu\\Dropbox\\rcew-hackathon-project-implementations\\land-dapp\\contracts\\register.sol",
  "compiler": {
    "name": "solc",
    "version": "0.8.13+commit.abaa5c0e.Emscripten.clang"
  },
  "schemaVersion": "3.4.7",
  "updatedAt": "2022-06-01T15:00:25.761Z",
  "networkType": "ethereum",
  "devdoc": {
    "kind": "dev",
    "methods": {},
    "version": 1
  },
  "userdoc": {
    "kind": "user",
    "methods": {},
    "version": 1
  }
}