{
  "contractName": "register",
  "abi": [
    {
      "inputs": [],
      "stateMutability": "nonpayable",
      "type": "constructor"
    },
    {
      "inputs": [
        {
          "internalType": "uint256",
          "name": "id",
          "type": "uint256"
        },
        {
          "internalType": "string",
          "name": "email",
          "type": "string"
        },
        {
          "internalType": "string",
          "name": "name",
          "type": "string"
        },
        {
          "internalType": "uint256",
          "name": "password",
          "type": "uint256"
        }
      ],
      "name": "registerUser",
      "outputs": [],
      "stateMutability": "nonpayable",
      "type": "function"
    },
    {
      "inputs": [
        {
          "internalType": "uint256",
          "name": "id",
          "type": "uint256"
        }
      ],
      "name": "getusername",
      "outputs": [
        {
          "internalType": "string",
          "name": "name",
          "type": "string"
        }
      ],
      "stateMutability": "view",
      "type": "function",
      "constant": true
    },
    {
      "inputs": [
        {
          "internalType": "uint256",
          "name": "id",
          "type": "uint256"
        },
        {
          "internalType": "uint256",
          "name": "password",
          "type": "uint256"
        }
      ],
      "name": "loginUser",
      "outputs": [
        {
          "internalType": "bool",
          "name": "",
          "type": "bool"
        }
      ],
      "stateMutability": "view",
      "type": "function",
      "constant": true
    },
    {
      "inputs": [],
      "name": "viewUsers",
      "outputs": [
        {
          "internalType": "uint256[]",
          "name": "",
          "type": "uint256[]"
        },
        {
          "internalType": "string[]",
          "name": "",
          "type": "string[]"
        },
        {
          "internalType": "string[]",
          "name": "",
          "type": "string[]"
        }
      ],
      "stateMutability": "view",
      "type": "function",
      "constant": true
    }
  ],
  "bytecode": "0x608060405234801561001057600080fd5b5033600460006101000a81548173ffffffffffffffffffffffffffffffffffffffff021916908373ffffffffffffffffffffffffffffffffffffffff160217905550610d4e806100616000396000f3fe608060405234801561001057600080fd5b506004361061004c5760003560e01c80630c93095d1461005157806314ebdb7914610081578063da09bc74146100a1578063e7586d26146100d1575b600080fd5b61006b600480360381019061006691906106ca565b6100ed565b6040516100789190610725565b60405180910390f35b61008961017a565b60405161009893929190610959565b60405180910390f35b6100bb60048036038101906100b691906109a5565b610388565b6040516100c89190610a1c565b60405180910390f35b6100eb60048036038101906100e69190610b73565b610488565b005b600080600090505b60008054905081101561016e576000818154811061011657610115610c12565b5b90600052602060002001548414801561014c57506003818154811061013e5761013d610c12565b5b906000526020600020015483145b1561015b576001915050610174565b808061016690610c70565b9150506100f5565b60009150505b92915050565b6060806060600060016002828054806020026020016040519081016040528092919081815260200182805480156101d057602002820191906000526020600020905b8154815260200190600101908083116101bc575b5050505050925081805480602002602001604051908101604052809291908181526020016000905b828210156102a457838290600052602060002001805461021790610ce7565b80601f016020809104026020016040519081016040528092919081815260200182805461024390610ce7565b80156102905780601f1061026557610100808354040283529160200191610290565b820191906000526020600020905b81548152906001019060200180831161027357829003601f168201915b5050505050815260200190600101906101f8565b50505050915080805480602002602001604051908101604052809291908181526020016000905b828210156103775783829060005260206000200180546102ea90610ce7565b80601f016020809104026020016040519081016040528092919081815260200182805461031690610ce7565b80156103635780601f1061033857610100808354040283529160200191610363565b820191906000526020600020905b81548152906001019060200180831161034657829003601f168201915b5050505050815260200190600101906102cb565b505050509050925092509250909192565b606060005b60008054905081101561048157600081815481106103ae576103ad610c12565b5b9060005260206000200154830361046e57600181815481106103d3576103d2610c12565b5b9060005260206000200180546103e890610ce7565b80601f016020809104026020016040519081016040528092919081815260200182805461041490610ce7565b80156104615780601f1061043657610100808354040283529160200191610461565b820191906000526020600020905b81548152906001019060200180831161044457829003601f168201915b5050505050915050610483565b808061047990610c70565b91505061038d565b505b919050565b3373ffffffffffffffffffffffffffffffffffffffff16600460009054906101000a900473ffffffffffffffffffffffffffffffffffffffff1673ffffffffffffffffffffffffffffffffffffffff16146104e257600080fd5b6005600085815260200190815260200160002060009054906101000a900460ff161561050d57600080fd5b60008490806001815401808255809150506001900390600052602060002001600090919091909150556001829080600181540180825580915050600190039060005260206000200160009091909190915090805190602001906105719291906105dd565b5060038190806001815401808255809150506001900390600052602060002001600090919091909150556002839080600181540180825580915050600190039060005260206000200160009091909190915090805190602001906105d69291906105dd565b5050505050565b8280546105e990610ce7565b90600052602060002090601f01602090048101928261060b5760008555610652565b82601f1061062457805160ff1916838001178555610652565b82800160010185558215610652579182015b82811115610651578251825591602001919060010190610636565b5b50905061065f9190610663565b5090565b5b8082111561067c576000816000905550600101610664565b5090565b6000604051905090565b600080fd5b600080fd5b6000819050919050565b6106a781610694565b81146106b257600080fd5b50565b6000813590506106c48161069e565b92915050565b600080604083850312156106e1576106e061068a565b5b60006106ef858286016106b5565b9250506020610700858286016106b5565b9150509250929050565b60008115159050919050565b61071f8161070a565b82525050565b600060208201905061073a6000830184610716565b92915050565b600081519050919050565b600082825260208201905092915050565b6000819050602082019050919050565b61077581610694565b82525050565b6000610787838361076c565b60208301905092915050565b6000602082019050919050565b60006107ab82610740565b6107b5818561074b565b93506107c08361075c565b8060005b838110156107f15781516107d8888261077b565b97506107e383610793565b9250506001810190506107c4565b5085935050505092915050565b600081519050919050565b600082825260208201905092915050565b6000819050602082019050919050565b600081519050919050565b600082825260208201905092915050565b60005b83811015610864578082015181840152602081019050610849565b83811115610873576000848401525b50505050565b6000601f19601f8301169050919050565b60006108958261082a565b61089f8185610835565b93506108af818560208601610846565b6108b881610879565b840191505092915050565b60006108cf838361088a565b905092915050565b6000602082019050919050565b60006108ef826107fe565b6108f98185610809565b93508360208202850161090b8561081a565b8060005b85811015610947578484038952815161092885826108c3565b9450610933836108d7565b925060208a0199505060018101905061090f565b50829750879550505050505092915050565b6000606082019050818103600083015261097381866107a0565b9050818103602083015261098781856108e4565b9050818103604083015261099b81846108e4565b9050949350505050565b6000602082840312156109bb576109ba61068a565b5b60006109c9848285016106b5565b91505092915050565b600082825260208201905092915050565b60006109ee8261082a565b6109f881856109d2565b9350610a08818560208601610846565b610a1181610879565b840191505092915050565b60006020820190508181036000830152610a3681846109e3565b905092915050565b600080fd5b600080fd5b7f4e487b7100000000000000000000000000000000000000000000000000000000600052604160045260246000fd5b610a8082610879565b810181811067ffffffffffffffff82111715610a9f57610a9e610a48565b5b80604052505050565b6000610ab2610680565b9050610abe8282610a77565b919050565b600067ffffffffffffffff821115610ade57610add610a48565b5b610ae782610879565b9050602081019050919050565b82818337600083830152505050565b6000610b16610b1184610ac3565b610aa8565b905082815260208101848484011115610b3257610b31610a43565b5b610b3d848285610af4565b509392505050565b600082601f830112610b5a57610b59610a3e565b5b8135610b6a848260208601610b03565b91505092915050565b60008060008060808587031215610b8d57610b8c61068a565b5b6000610b9b878288016106b5565b945050602085013567ffffffffffffffff811115610bbc57610bbb61068f565b5b610bc887828801610b45565b935050604085013567ffffffffffffffff811115610be957610be861068f565b5b610bf587828801610b45565b9250506060610c06878288016106b5565b91505092959194509250565b7f4e487b7100000000000000000000000000000000000000000000000000000000600052603260045260246000fd5b7f4e487b7100000000000000000000000000000000000000000000000000000000600052601160045260246000fd5b6000610c7b82610694565b91507fffffffffffffffffffffffffffffffffffffffffffffffffffffffffffffffff8203610cad57610cac610c41565b5b600182019050919050565b7f4e487b7100000000000000000000000000000000000000000000000000000000600052602260045260246000fd5b60006002820490506001821680610cff57607f821691505b602082108103610d1257610d11610cb8565b5b5091905056fea2646970667358221220059036d66fd68fca959fb1f8cd42d14e7c64bdf40a60e2000939e225efb531f164736f6c634300080d0033",
  "immutableReferences": {},
  "source": "// SPDX-License-Identifier: MIT\r\npragma solidity >=0.4.22 <0.9.0;\r\n\r\ncontract register {\r\n  uint[] _ids;\r\n  string[] _names;\r\n  string[] _emails;\r\n  uint[] _passwords;\r\n  address admin;\r\n  mapping(uint => bool ) users;\r\n\r\n  constructor()  {\r\n    admin=msg.sender;\r\n  }\r\n\r\n  modifier onlyAdmin {\r\n    require(admin==msg.sender);\r\n    _;\r\n  }\r\n\r\n  function registerUser(uint id,string memory email,string memory name,uint password) onlyAdmin public {\r\n\r\n    require(!users[id]);\r\n\r\n    _ids.push(id);\r\n    _names.push(name);\r\n    _passwords.push(password);\r\n    _emails.push(email);\r\n\r\n  }\r\n  function getusername(uint id) public view returns(string memory name){\r\n    uint i;\r\n    for(i=0;i<_ids.length;i++) {\r\n      if(id==_ids[i]) {\r\n        return _names[i];\r\n      }\r\n    }\r\n  } \r\n  function loginUser(uint id,uint password)  public view returns(bool){\r\n\r\n    uint i;\r\n    for(i=0;i<_ids.length;i++) {\r\n      if(id==_ids[i] && password==_passwords[i]) {\r\n        return true;\r\n      }\r\n    }\r\n    return false;\r\n  }\r\n\r\n  function viewUsers() public view returns (uint[] memory,string[] memory,string[] memory) {\r\n    return (_ids,_names,_emails);\r\n  }\r\n\r\n}\r\n",
  "sourcePath": "E:\\Users\\komal\\Desktop\\github\\landregistration\\landregistration\\contracts\\register.sol",
  "compiler": {
    "name": "solc",
    "version": "0.8.13+commit.abaa5c0e.Emscripten.clang"
  },
  "schemaVersion": "3.4.11",
  "updatedAt": "2022-11-25T03:45:14.488Z",
  "networkType": "ethereum",
  "devdoc": {
    "kind": "dev",
    "methods": {},
    "version": 1
  },
  "userdoc": {
    "kind": "user",
    "methods": {},
    "version": 1
  }
}