{
  "contractName": "register",
  "abi": [
    {
      "inputs": [],
      "stateMutability": "nonpayable",
      "type": "constructor"
    },
    {
      "inputs": [
        {
          "internalType": "uint256",
          "name": "id",
          "type": "uint256"
        },
        {
          "internalType": "string",
          "name": "name",
          "type": "string"
        },
        {
          "internalType": "uint256",
          "name": "password",
          "type": "uint256"
        }
      ],
      "name": "registerUser",
      "outputs": [],
      "stateMutability": "nonpayable",
      "type": "function"
    },
    {
      "inputs": [
        {
          "internalType": "uint256",
          "name": "id",
          "type": "uint256"
        },
        {
          "internalType": "uint256",
          "name": "password",
          "type": "uint256"
        }
      ],
      "name": "loginUser",
      "outputs": [
        {
          "internalType": "bool",
          "name": "",
          "type": "bool"
        }
      ],
      "stateMutability": "view",
      "type": "function",
      "constant": true
    }
  ],
  "bytecode": "0x608060405234801561001057600080fd5b5033600360006101000a81548173ffffffffffffffffffffffffffffffffffffffff021916908373ffffffffffffffffffffffffffffffffffffffff160217905550610680806100616000396000f3fe608060405234801561001057600080fd5b50600436106100365760003560e01c80630aa31de01461003b5780630c93095d14610057575b600080fd5b6100556004803603810190610050919061045f565b610087565b005b610071600480360381019061006c91906104ce565b61019f565b60405161007e9190610529565b60405180910390f35b3373ffffffffffffffffffffffffffffffffffffffff16600360009054906101000a900473ffffffffffffffffffffffffffffffffffffffff1673ffffffffffffffffffffffffffffffffffffffff16146100e157600080fd5b6004600084815260200190815260200160002060009054906101000a900460ff161561010c57600080fd5b600083908060018154018082558091505060019003906000526020600020016000909190919091505560018290806001815401808255809150506001900390600052602060002001600090919091909150908051906020019061017092919061022c565b506002819080600181540180825580915050600190039060005260206000200160009091909190915055505050565b600080600090505b60008054905081101561022057600081815481106101c8576101c7610544565b5b9060005260206000200154841480156101fe5750600281815481106101f0576101ef610544565b5b906000526020600020015483145b1561020d576001915050610226565b8080610218906105a2565b9150506101a7565b60009150505b92915050565b82805461023890610619565b90600052602060002090601f01602090048101928261025a57600085556102a1565b82601f1061027357805160ff19168380011785556102a1565b828001600101855582156102a1579182015b828111156102a0578251825591602001919060010190610285565b5b5090506102ae91906102b2565b5090565b5b808211156102cb5760008160009055506001016102b3565b5090565b6000604051905090565b600080fd5b600080fd5b6000819050919050565b6102f6816102e3565b811461030157600080fd5b50565b600081359050610313816102ed565b92915050565b600080fd5b600080fd5b6000601f19601f8301169050919050565b7f4e487b7100000000000000000000000000000000000000000000000000000000600052604160045260246000fd5b61036c82610323565b810181811067ffffffffffffffff8211171561038b5761038a610334565b5b80604052505050565b600061039e6102cf565b90506103aa8282610363565b919050565b600067ffffffffffffffff8211156103ca576103c9610334565b5b6103d382610323565b9050602081019050919050565b82818337600083830152505050565b60006104026103fd846103af565b610394565b90508281526020810184848401111561041e5761041d61031e565b5b6104298482856103e0565b509392505050565b600082601f83011261044657610445610319565b5b81356104568482602086016103ef565b91505092915050565b600080600060608486031215610478576104776102d9565b5b600061048686828701610304565b935050602084013567ffffffffffffffff8111156104a7576104a66102de565b5b6104b386828701610431565b92505060406104c486828701610304565b9150509250925092565b600080604083850312156104e5576104e46102d9565b5b60006104f385828601610304565b925050602061050485828601610304565b9150509250929050565b60008115159050919050565b6105238161050e565b82525050565b600060208201905061053e600083018461051a565b92915050565b7f4e487b7100000000000000000000000000000000000000000000000000000000600052603260045260246000fd5b7f4e487b7100000000000000000000000000000000000000000000000000000000600052601160045260246000fd5b60006105ad826102e3565b91507fffffffffffffffffffffffffffffffffffffffffffffffffffffffffffffffff82036105df576105de610573565b5b600182019050919050565b7f4e487b7100000000000000000000000000000000000000000000000000000000600052602260045260246000fd5b6000600282049050600182168061063157607f821691505b602082108103610644576106436105ea565b5b5091905056fea26469706673582212206913bf79c37ddc2ae44e0170f2ee92bb5adeb5b66873b95c46eac25e8d93f26064736f6c634300080d0033",
  "immutableReferences": {},
  "source": "// SPDX-License-Identifier: MIT\npragma solidity >=0.4.22 <0.9.0;\n\ncontract register {\n  uint[] _ids;\n  string[] _names;\n  uint[] _passwords;\n  address admin;\n  mapping(uint => bool ) users;\n\n  constructor()  {\n    admin=msg.sender;\n  }\n\n  modifier onlyAdmin {\n    require(admin==msg.sender);\n    _;\n  }\n\n  function registerUser(uint id,string memory name,uint password) onlyAdmin public {\n\n    require(!users[id]);\n\n    _ids.push(id);\n    _names.push(name);\n    _passwords.push(password);\n\n  }\n\n  function loginUser(uint id,uint password)  public view returns(bool){\n\n    uint i;\n    for(i=0;i<_ids.length;i++) {\n      if(id==_ids[i] && password==_passwords[i]) {\n        return true;\n      }\n    }\n    return false;\n  }\n\n}\n",
  "sourcePath": "C:\\Users\\Madhu\\Desktop\\land-registration-blockchain\\contracts\\register.sol",
  "compiler": {
    "name": "solc",
    "version": "0.8.13+commit.abaa5c0e.Emscripten.clang"
  },
  "schemaVersion": "3.4.7",
  "updatedAt": "2022-05-17T05:46:02.933Z",
  "networkType": "ethereum",
  "devdoc": {
    "kind": "dev",
    "methods": {},
    "version": 1
  },
  "userdoc": {
    "kind": "user",
    "methods": {},
    "version": 1
  }
}